:020000040800F2
:10000000A006002001010008293E0008153500085F
:10001000C13D00084D0D00081D4200080000000011
:10002000000000000000000000000000F140000897
:100030005D0D000800000000ED400008F5400008DC
:100040001B0100081B0100081B0100081B01000820
:100050001B0100081B0100081B0100081B01000810
:100060001B0100081B0100081B010008510D0008BE
:100070001B0100081B0100081B0100081B010008F0
:100080001B0100081B010008490900081B010008AA
:100090001B0100081B0100081B0100081B010008D0
:1000A0001B0100081B0100081B0100081B010008C0
:1000B000FD4000081B0100081B0100081B0100088F
:1000C0001B0100081B0100081B0100081B010008A0
:1000D0001B010008114200081B0100081B01000859
:1000E0001B0100081B0100081B010008DFF80CD0F1
:1000F00000F084FB0048004741420008A0060020B1
:100100000648804706480047FEE7FEE7FEE7FEE7B1
:10011000FEE7FEE7FEE7FEE7FEE7FEE7F940000840
:10012000ED000008D2B201E000F8012B491EFBD21D
:1001300070470022F6E710B513460A4604461946F2
:10014000FFF7F0FF204610BDF0B480EA0102D40FA3
:100150004200B2EB410F02D20246084611464A0065
:1001600042D0C30DDDB2C1F3C752AD1A202D35DA2E
:10017000C1F3160141F4000204B15242C5F1200658
:1001800002FA06F12A411044B3EBD05F23D0C4B188
:10019000012DA0EBC35009DCF0BC4FF0004202EA95
:1001A000C352DBB200F5000000F041B9400000F19D
:1001B000807000EBC350A0F1807040EAD17049001C
:1001C00009E0490841EAC071A0EBC35000F5000006
:1001D000400800EBC350F0BC00F020B9614201229E
:1001E00002EB4101001BF6E7F0BC704781F00041D3
:1001F000AAE780F00040A7E780EA010210B502F00C
:100200000043400022D04A001FD0010E01EB1261D2
:10021000C0F35600C2F3560240F4000042F400025C
:10022000A0FB022000047F39140400D0401C50EAD7
:10023000124001D44000491EC2B20C0604EBD0109B
:10024000401C4008802A02D003E0002010BD20F0AE
:100250000100002900DA0020184310BD30B480EA04
:10026000010202F0004530F0004221F0004013D0BE
:1002700090B1C30DD40DC2F31601C0F31600E41AF9
:1002800041F4000140F400027D34914201D3641C2A
:1002900000E04900002C02DA30BC002070474FF427
:1002A00000000023914201D3891A034340084FEA1A
:1002B0004101F7D151B1914202D14FF0004105E027
:1002C00002D24FF0010101E06FF0010103EBC450D5
:1002D000284430BC00F0A2B8002801DBC0F1004087
:1002E000002901DBC1F10041814201D801207047A2
:1002F00000207047002801DBC0F10040002901DB2D
:10030000C1F10041814201D20120704700207047B5
:10031000002801DBC0F10040002901DBC1F10041F0
:10032000814201D9012070470020704796230022A6
:10033000114600F07CB800F0004220F00040C10DF2
:10034000C0F3160040F400007F2901DA0020704756
:10035000962903DCC1F19601C84001E09639884036
:10036000002AF4D04042704700F0004230F00040D4
:100370000AD0C10D01F56071C0F3160042EA0151C7
:10038000C20840071143704700200146704730B54E
:100390000B46014600202022012409E021FA02F543
:1003A0009D4205D303FA02F5491B04FA02F52844DD
:1003B000151EA2F10102F1DC30BD2DE9F05F05460A
:1003C000002092469B4688460646814640241BE014
:1003D000284641464746224600F037FA53465A46D9
:1003E000C01A914110D311461846224600F01EFA59
:1003F0002D1A67EB01084F4622460120002100F02C
:1004000015FA17EB00094E41201EA4F10104DFDCB0
:10041000484631462A464346BDE8F09F0029A8BF1A
:100420007047401C490008BF20F00100704710B41D
:10043000B0FA80FC00FA0CF050EA010404BF10BCD2
:10044000704749B1CCF1200421FA04F411FA0CF1FF
:1004500018BF012121430843A3EB0C01CB1D4FEA38
:1004600000614FEA102042BF002010BC704700EB33
:10047000C35010440029A4BF10BC7047401C490061
:1004800008BF20F0010010BC70472DE9FE4F8046E8
:1004900081EA0300C00F0C46009021F0004123F0D8
:1004A0000045B8EB0200A94105D2404621469046DE
:1004B0001C460B46024623F00040104347D0270D50
:1004C000C7F30A00C3F30A510290401A0190402872
:1004D0006BDAC3F3130040F4801B0098924620B1FE
:1004E0000023D2EB030A63EB0B0B01985946C0F1D2
:1004F0004002504600F09AF906460D4650465946CD
:10050000019A00F0B2F910EB08006141002487EA7B
:10051000115284EAE7731A4340D0009A62B3019AF9
:10052000012A4FEA075215DC001B61EB02014FF074
:10053000004202EA0752CDE90042001C41F5801159
:1005400032462B4600F0B2F903B0BDE8F08F4046CA
:100550002146F9E7001B61EB0201001C41F5801305
:1005600000185B412018A2F5001747EB030140EA91
:10057000D570B6196D4111E06D084FEA360645EAAF
:10058000C0754FEA0752001B61EB0201001C41F5E8
:10059000801149084FEA30000019514132462B467C
:1005A00003B0BDE8F04F00F072B90098012240009E
:1005B0000023D0EB020263EBE073009821464FEA80
:1005C000E074B8EB000061EB0401E9E783F000435D
:1005D0005BE781F0004158E72DE9FE4F81EA030413
:1005E00004F0004421F0004100944FF0000B23F090
:1005F000004350EA01045ED052EA03045BD0C3F327
:100600000A54C1F30A552C44A4F2F3340194A0FB1C
:100610000254C1F3130141F48011C3F3130343F4F3
:10062000801301FB024400FB034E840A970A44EA4C
:10063000815447EA8357A4FB076802958D0A05FB9E
:1006400007854FEA932C04FB0C542705029D4FEAC3
:10065000065847EA1637B5EB08056EEB070C870E10
:10066000920E47EA811742EA8312A7FB0201B6EB1A
:100670000B0164EB00042B0D43EA0C335E1844EBD2
:100680001C50DA465146E7FB0201C5F313044FEA5A
:100690000B3343EA14534FEA0432019C43EA060346
:1006A000A4F10C040294009CCDE900B400F0FEF823
:1006B00003B0BDE8F08F00200146F9E72DE9F04DC9
:1006C00081EA030404F0004B21F0004514464FF08A
:1006D000000A23F0004150EA050220D054EA01024A
:1006E0001DD0C5F30A570246C5F31303C1F3130027
:1006F000C1F30A5640F4801543F48013A7EB0608B3
:10070000101BD64608F2FD3873EB050002D308F142
:10071000010801E092185B41B8F1000F03DA0020F4
:100720000146BDE8F08D00204FF480110646844656
:100730000EE0171B73EB050705D3121B63EB0503D4
:1007400006434CEA010C49084FEA300092185B411D
:1007500050EA0107EDD152EA030012D082EA040008
:1007600083EA0501084305D0101BAB4106D20122E4
:10077000002306E000224FF0004302E06FF0010288
:1007800053101AEB06004CEB085110EB0A0041EB3A
:100790000B01BDE8F04D00F07AB8C1F30A52C1F385
:1007A000130140F2FF3341F480119A4202DA002033
:1007B0000146704740F233439A42A2F2334202DCD0
:1007C000524200F042B800F031B8000030B5041ECB
:1007D00071F1000404DB4FF00044404264EB01017E
:1007E000141E73F1000405DB1C464FF00043524217
:1007F00063EB0403994208BF904230BD1CB5094821
:100800000090094801900546009C06E0E06840F031
:10081000010394E8070098471034AC42F6D3FFF781
:1008200069FC00007055000890550008202A04DB80
:10083000203A00FA02F1002070479140C2F12003F3
:1008400020FA03F3194390407047202A04DB203A32
:1008500021FA02F00021704721FA02F3D040C2F1E0
:1008600020029140084319467047202A06DBCB1727
:10087000203A41FA02F043EAE07306E041FA02F35B
:10088000D040C2F12002914008431946704710B58C
:10089000141E73F1000408DA401C41F100019218A3
:1008A0005B411A4301D120F0010010BD2DE9F04D4C
:1008B00092469B4611B1B1FA81F202E0B0FA80F2A1
:1008C00020329046FFF7B2FF04460F4640EA0A0086
:1008D00041EA0B0153465A46084313D0114653EAE6
:1008E000010019D0C8F140025046FFF7AEFF05469F
:1008F0000E46504659464246FFF798FF084305D03A
:10090000012004E020463946BDE8F08D0020054373
:1009100046EAE0762C4337430A986305E40AA0EBE5
:1009200008000022FD0A44EA47540A3002D500209C
:100930000146E9E7010510196941DDE9084500199B
:100940006941BDE8F04DA2E740F25010C2F200004C
:1009500000F072BB40F21000C2F2000001780029E2
:1009600008BF70472DE9F04F81B04FF0000980F8C3
:10097000009040F28800C2F2000040F2B00BA0F1FB
:10098000040AC2F2000B00BF3BF809000BEB090898
:10099000FFF7CCFCB8F8021004460846FFF7C6FC87
:1009A000064620463146FFF7CFFB07462046314634
:1009B000FFF7AEFC002825462046314618BF3546D5
:1009C000FFF798FC0028B8F8040018BF3446FFF77A
:1009D000ADFC064638463146FFF7B6FB07462846CB
:1009E0003146FFF795FC00282046314618BF3546B2
:1009F000FFF780FC0028B8F8060018BF3446FFF760
:100A000095FC064638463146FFF79EFB07462846CA
:100A10003146FFF77DFC00282046314618BF354699
:100A2000FFF768FC0028B8F8080018BF3446FFF745
:100A30007DFC064638463146FFF786FB07462846CA
:100A40003146FFF765FC00282046314618BF354681
:100A5000FFF750FC0028B8F80A0018BF3446FFF72B
:100A600065FC064638463146FFF76EFB07462846CA
:100A70003146FFF74DFC00282046314618BF354669
:100A8000FFF738FC0028B8F80C0018BF3446FFF711
:100A90004DFC064638463146FFF756FB07462846CA
:100AA0003146FFF735FC00282046314618BF354651
:100AB000FFF720FC0028B8F80E0018BF3446FFF7F7
:100AC00035FC064638463146FFF73EFB07462846CA
:100AD0003146FFF71DFC00282046314618BF354639
:100AE000FFF708FC0028B8F8100018BF3446FFF7DD
:100AF0001DFC064638463146FFF726FB07462846CA
:100B00003146FFF705FC00282046314618BF354620
:100B1000FFF7F0FB0028B8F8120018BF3446FFF7C3
:100B200005FC064638463146FFF70EFB07462846C9
:100B30003146FFF7EDFB00282046314618BF354609
:100B4000FFF7D8FB00283846294618BF3446FFF780
:100B50004DFB2146FFF74AFB4FF07851FFF74CFB66
:100B600009F12809B9F1A00F4AF8040F7FF40CAF7E
:100B700040F28801C2F20001D1E90007D1E9026820
:100B80004FF06651FFF738FB0025C4F2C82529460F
:100B9000FFF732FB40F29804C2F2000420603846AE
:100BA0004FF06651FFF728FB2946FFF725FB6060F1
:100BB00030464FF06651FFF71FFB2946FFF71CFB3D
:100BC000A06040464FF06651FFF716FB2946FFF73D
:100BD00013FBE06001B0BDE8F04F7047B0B50446CC
:100BE00000688168C90709D0816821F0010181602E
:100BF00000F006FF21688968C90701D10020B0BD57
:100C0000054602E08068C007F8D000F0F9FE411BFD
:100C100020680329F6D38168C907F3D0A06A40F0A1
:100C20001000A062E06A40F00100E0620120B0BD67
:100C30000146406A826A12F0500F03D0006A026BCC
:100C4000084610470168826A42F40072826289682D
:100C500001F46021B1F5602F01D1017B09B100F0F1
:100C6000A9B9816A21F480718162816AC90448BF8F
:100C700000F0A0B9816A41F00101816200F09AB9E7
:100C8000406A816A41F040018162C16A41F0040119
:100C9000C16200F0CFB90000406A00F0C9B900009D
:100CA000B0B582B004460020019021688A68D2075E
:100CB00049D1886840F00100886040F20400C2F227
:100CC000000000684DF68361C4F21B31A0FB0101F6
:100CD000880C00BF0190019888B1019801380190FB
:100CE000019860B1019801380190019838B10198DC
:100CF00001380190019810B101980138EAE700F03D
:100D00007FFE21688968C9071CD1054603E000BF42
:100D10008068C00716D100F073FE411B20680329CC
:100D2000F6D38168C907F3D1A06A40F01000A06231
:100D3000E06A40F00100E062002084F82400012015
:100D400002B0B0BD002002B0B0BD0000FEE7000060
:100D500040F28010C2F2000000F0F0BB70470000CB
:100D6000EFF3108072B600BFFEE7000070B582B0EE
:100D700004460020019094F82400012802D10220AA
:100D800002B070BD012084F824002046FFF726FF42
:100D90002046FFF785FF002868D10646A06A41F289
:100DA000021188430230A06240F20400C2F2000047
:100DB0000568022000F0E8FEB5FBF0F0400000BF3F
:100DC0000190019888B1019801380190019860B1B3
:100DD000019801380190019838B1019801380190CB
:100DE000019810B101980138EAE72068816841F064
:100DF0000801816000F004FE21688A6812070ED4A1
:100E0000886840F00400886000F0FAFD2168896875
:100E1000490714D401216FF00302304622E0054651
:100E200003E000BF88680007EAD500F0E9FD401B39
:100E300021680B28F6D388680007F3D50EE0054635
:100E400003E000BF80684007E4D500F0D9FD411BF6
:100E500020680B29F6D381684907F3D501201021BA
:100E60006FF01202A36A1A401143A162002184F8B4
:100E7000241002B070BD00007047000070B581B052
:100E80000022009290F82420012A01D1022154E08E
:100E90004A680123062A02EB820E80F8243006D825
:100EA000D0F800C06FF004030CF134060BE0D0F86A
:100EB00000C00C2A87BF0CF12C066FF040030CF128
:100EC00030066FF022030EEB03021F23346803FA8F
:100ED00002F50B6824EA050503FA02F22A433260A0
:100EE000092B03EB43021AD9DCF80C601E3A0725E4
:100EF00089689540AE43914023F001023143102AA6
:100F0000CCF80C1015D142F20041C4F201018C451D
:100F100016D0816A41F02001816201210AE0DCF8EB
:100F20001030072689689640B34391401943CCF8A6
:100F300010100021002280F82420084601B070BD66
:100F400089680902F5D4DCF80810102B41F400017F
:100F5000CCF80810EDD140F20401C2F2000109689A
:100F60004DF68362C4F21B32A1FB0212910C01EB1D
:100F700081014900009100990029DAD000990139D6
:100F8000009100990029D4D000990139009100996D
:100F90000029CED000990139009100990029C8D0CC
:100FA000009901390091009900294FF00001E5D125
:100FB000C0E70000006842F20041C4F2010188422B
:100FC00018BF7047F0B581B040F2A80640F2110496
:100FD000C2F20006C2F2000430882578FFF7A6F9B5
:100FE00040F2B0027188C2F2000242F825000846C1
:100FF00002EB8507FFF79AF9B188B8620846FFF758
:1010000095F9F18838650846FFF790F9B867681CCC
:10101000C1B20A29207007D30020207040F21000CE
:10102000C2F200000121017001B0BDE8F04070473C
:10103000704700007047000070B5044600680568FE
:101040004668B10627D515F0020124D0A16AC90669
:1010500003D4A16A41F40071A162816801F46021A6
:10106000B1F5602F10D1217B71B9416821F02001C9
:101070004160A06A20F48070A062A06AC00403D41A
:10108000A06A40F00100A0622046FFF793FF2068AD
:101090006FF012010160310632D515F004012FD036
:1010A000A16AC90603D4A16A41F40051A162816812
:1010B00001F4E041B1F5E04F0FD1416821F080012A
:1010C0004160A06A20F48050A062A06AC00510D4DC
:1010D000A06A40F00100A0620BE04168490508D415
:1010E000816801F46021B1F5602F02D1217B0029D4
:1010F000E3D02046FFF7C0FE20686FF00C010160CE
:1011000070060ED515F0010008BF70BDA06A40F44E
:101110008030A062204600F0A9F820686FF001013D
:10112000016070BD002804BF01207047B0B50446BF
:10113000806A30B90020E06284F82400204600F084
:1011400097F821688868C00709D0886820F00100F6
:10115000886000F055FC21688A68D20726D1A06A11
:10116000C0063AD4A06A41F2021290430230A06253
:10117000E069D4E9013240EA030C531EB3FA83F369
:101180005D091346B2F5807F18BF2B02207D257BB9
:1011900001284CEA45002BD12DB3A56A45F0200566
:1011A000A562E56A45F00105E56221E0054602E039
:1011B0008868C007D3D000F023FC401B21680328B7
:1011C000F6D38868C007F3D0A06A40F01000A06290
:1011D000E06A40F00100E062A06AA06A40F01000FE
:1011E000A0620120B0BDA56903EB4533A3F5C05350
:1011F0004D68B2F5807F25F4694543EA05034B60ED
:101200008B684FF2FD75CFF6E17503EA050343EAFB
:1012100000038B6001D0012A06D122690023CFF69A
:10122000F07303EB025200E00022CB6A23F4700358
:101230001A43CA62896840F6FE62CFF61F721140F7
:10124000814207D10020E062A16A012262F301011C
:10125000A162B0BDA06A40F0100020F00200A062C0
:10126000E06A40F00100E0620120B0BD704700007C
:1012700070B586B0044640F60000C4F20100216853
:1012800000F5E052002691420596CDE903660296EC
:1012900001D006B070BD41F21801C4F202010A6823
:1012A00042F400720A600A6802F400720192019A24
:1012B0000A6842F004020A60096801F00401019121
:1012C0000199332102910321039102A900F090FAC0
:1012D00040F280150820C2F20005C4F202004FF46B
:1012E0008072C5E9000605F1100080214FF480638B
:1012F0004FF0200C4FF4005E80E80C502846C5E902
:10130000026100F0CFF9002818BFFFF729FD122075
:101310000021002225626C6200F0FAFB122000F02E
:10132000E5FB06B070BD0000F0B581B0036842F681
:101330000006C4F20106B34205D042F20046C4F2F0
:101340000106B34207D142F20443C4F201031B6811
:1013500013F4702F12D190F82430012B02D1022007
:1013600001B0F0BD0D460121174680F82410064655
:10137000FFF796FC28B1002086F82400012001B078
:10138000F0BD42F204403168B36AC4F20100324653
:1013900040F60176B34300F57F7603F58073B142E2
:1013A000936244D0906A20F48010906248684005AF
:1013B00004D5906A012363F30D309062936A002094
:1013C000DB044FF0000344BFD36A23F00603D3626B
:1013D00082F82400106A40F6314340F69946C0F680
:1013E0000003C0F6000640F68144C0F60004C0E9E0
:1013F0000A366FF0020304630B608B68144643F4F3
:1014000080738B604C312A463B4600F08DF9206892
:10141000816801F460228168B2F5602F0CBF41F44D
:10142000A00141F480118160002001B0F0BD03688B
:1014300013F4702FB6D0936A43F48013936200685C
:101440004005B6D4BAE70000014690F82100022812
:1014500013D10868D1E90FC3026822F00E020260BE
:10146000026822F001020260012000FA03F2CCF8C7
:10147000042081F82100002002E00420886301207C
:10148000002281F82020704790F82110022923D1F2
:10149000026840F2040C1168C4F2020C21F00E0143
:1014A000116013682F21C4F202018A4223F0010364
:1014B000136015DD3023C4F202039A421CD044238A
:1014C000C4F202039A421AD05823C4F202039A4289
:1014D0001AD14FF480331FE004218163012070474B
:1014E0000823C4F202039A420CD01C23C4F2020364
:1014F0009A4209D110230FE04FF480730CE04FF4AF
:10150000805309E0012307E00CF168014FF080737C
:101510008A4208BF4FF480130121CCF8003080F8D4
:101520002110416B0022002980F8202004BF0020F8
:10153000704780B58847002080BD000010B5D0E915
:101540000FCE0168DCF800300A6823FA0EF35C075E
:1015500024D512F0040421D00A68920603D40A6844
:1015600022F004020A602F22C4F20202914240F2E9
:101570000402C4F202024FDD3023C4F20203994296
:1015800062D04423C4F20203994260D05823C4F2CB
:101590000203994260D14FF4802365E09C0727D570
:1015A00012F0020424D00A68920606D40A6822F0D7
:1015B0000A020A60012280F821202F22C4F20202CE
:1015C000914240F20402C4F2020231DD3023C4F23F
:1015D000020399424ED04423C4F2020399424CD0F4
:1015E0005823C4F2020399424CD14FF4003351E026
:1015F0001B0756D512F0080208BF10BD0A6822F07A
:101600000E020A60012101FA0EF2CCF80420816377
:1016100080F82110016B3FE00823C4F202039942D5
:1016200018D01C23C4F20203994215D140231BE0B9
:101630000823C4F20203994222D01C23C4F20203FD
:1016400099421FD1202325E04FF480630CE04FF432
:10165000804309E0042307E002F168044FF080634F
:10166000A14208BF4FF480031360C16AC9B1BDE84D
:10167000104008474FF400730CE04FF4005309E0AA
:10168000022307E002F168044FF00073A14208BF93
:101690004FF400131360816A0022002980F8202093
:1016A000E5D110BD014600284FF0010008BF70478A
:1016B0002DE9F043D1F800C04FF6F873CBF6FD7377
:1016C0004CF6CD426344CCF6CC42A3FB02236FF030
:1016D000030202EA93020023C4F2020301F10C08A0
:1016E000C1E90F320222D1E9019E98E8F00181F8A8
:1016F0002120DCF8002043F6F0739A4342EA090205
:1017000042EA0E0222432A4332433A4342EA0802A3
:10171000CCF8002000228A6381F8210081F8202083
:101720000020BDE8F043704790F820C0BCF1010FE5
:1017300004BF02207047F0B54FF0010E80F820E0A2
:1017400090F821C0BCF1010F26D14FF0020C80F8B7
:1017500021C04FF0000CC0F838C0D0E900C4C56A01
:10176000C66BDCF80070102C27F00107CCF8007075
:10177000006C0EFA00F070600846CCF8043004BF2C
:1017800010460A46CCF80800CCF80C20DCF8000023
:101790003DB140F00E000CE0002180F82010022046
:1017A000F0BD20F00400CCF80000DCF8000040F0B0
:1017B0000A00CCF80000DCF8000040F00100CCF892
:1017C00000000020F0BD0000B0B5044600F018F99C
:1017D000054640F20800C2F200000078611C18BF04
:1017E000044400BF00F00CF9401BA042FAD3B0BD86
:1017F0002DE9F04F82B00E68002E00F0F78041F224
:101800000042C4F20102042340F2004E904208BF9D
:1018100003234FF6FF7CC4F2010E00930024012342
:10182000C1F2100C4FF0000A4FF000094AE041F2FB
:101830000002C4F20102009F904208BF022704F098
:101840000C030F229A402BEA020207FA03F34FEA35
:101850009A051A4346F825204E6840F20C45F202DC
:10186000DEF8082054BF22EA080242EA0802C4F265
:101870000105CEF808202A68B30254BF22EA080204
:1018800042EA08022A60B303DEF8042054BF22EAC9
:10189000080242EA0802F303CEF80420DEF8002032
:1018A0004FF0010354BF22EA080242EA0802CEF8D0
:1018B00000200E680AF1010A36FA0AF204F1040463
:1018C00000F0948003FA0AFB16EA0B08F1D04E6888
:1018D000664511DC122E51D8DFE806F0340A49467D
:1018E00050505050505050505050505050424D0059
:1018F000D1F80C9042E000BF4FF6FF72C1F2210216
:1019000096420FDC0022C1F2110296421AD0002248
:10191000C1F21202964215D00022C1F22102964273
:1019200010D02BE00022C1F2220296420AD00022FF
:10193000C1F23102964205D00022C1F23202964233
:101940001CD100BF8A6842B1012A14BFC0F814B08C
:10195000C0F810B04FF0080910E04FF004090DE096
:10196000CA6802F1040909E04FF0000906E0CA68FC
:1019700002F1080902E0CA6802F10C090246264693
:10198000B8F5807F24BF0432203E17680F25B5408C
:1019900027EA050509FA06F635431560CA79D20625
:1019A0007FF587AF41F21803C4F202031A68AEF55F
:1019B0007E7642F001021A601A6802F0010201927A
:1019C000019A2AF0030256F802B040F60002C4F26F
:1019D0000102904208D040F60042C4F20102904257
:1019E0007FF425AF01272AE7002728E702B0BDE8EA
:1019F000F08F0000002A08BF090401617047000051
:101A000040F29C20C2F200000068704740F20800DB
:101A100040F29C21C2F20000C2F2000100780A6884
:101A2000104408607047000080B542F20000C4F224
:101A30000200016841F010010160032000F094F8F9
:101A4000002000F005F800F02BF8002080BD000019
:101A5000B0B540F20802C2F2000240F2040112786E
:101A6000C2F200014FF47A730968B3FBF2F2044644
:101A7000B1FBF2F1084600F067FC0F2C4FF00105B6
:101A80000CD858B94FF0FF3021460022002500F055
:101A90003FF840F20C00C2F2000004602846B0BDDE
:101AA00080B582B041F21800C4F20200016841F032
:101AB00001010160016801F0010101910199416892
:101AC00041F080514160406800F0805000900098E3
:101AD000052000F049F80420C4F201000168022248
:101AE00062F31A61016002B080BD0000002848BFA7
:101AF000704700F01F01012202FA01F11C2202EAE4
:101B0000D0004EF20012CEF2000281507047000069
:101B100010B54EF60C5CCEF2000CDCF80030C3F3CE
:101B2000022E8EF00704042C28BF0424BEF1030308
:101B30004FF0FF3E0EFA04F438BF0023A143994052
:101B40000EFA03F39A43114300F00F0200F16043D1
:101B50000901043A03F564436244002848BF02F1D6
:101B60000C03197010BD00004EF60C51CEF20001AE
:101B70000A684FF6FF031A4060F30A2242F08060C1
:101B800040F0FD7008607047012820D002280CD07A
:101B9000102808D141F20401C4F202010A6851F888
:101BA000040CC00132D40020704780B500F0D4F995
:101BB00041F20401C4F2020109680222C1F3813139
:101BC00002EB4101B0FBF1F0BDE88040704741F20B
:101BD0000400C4F20200C16940F202320A40B2F5C8
:101BE000817F04BF4FF40040704701F44071B1F5AC
:101BF000407F17D0B1F5007F1CBF00207047006AFE
:101C000049F64041800701EAE0707047C2F3834023
:101C100015A3185CD2030DD440F60012C0F23D02A9
:101C2000504313E050F8040C4FF22441800301EAC2
:101C3000E07070470A6810A3C2F340429A5C41F218
:101C40000023C0F27A03B3FBF2F250430968490261
:101C500048BF70474AF6AB214000CAF6AA21A0FB54
:101C600001014808704700BF020304050607080980
:101C70000A0B0C0D0E0F1010010200002DE9F041AF
:101C800082B00446007841F21C06C007C4F2020686
:101C90004AD030685FEAC00808D4306840F080500D
:101CA0003060306800F080500190019847F20007E2
:101CB000C4F200073868C00512D4386840F4807058
:101CC0003860FFF79DFE05463868C00508D4FFF769
:101CD00097FE401B6428F7D9032002B0BDE8F081CD
:101CE000706810F4407012D0616801F4407188424D
:101CF0000DD0706840F24042C4F24222012320F429
:101D0000407113600023C0071360716025D17068B3
:101D1000616820F440700843B8F1000F706003D48C
:101D2000306820F0805030602068810707D556F871
:101D3000181CA26821F44041114346F8181CC00643
:101D400007D556F8180CE16820F48000084346F8DF
:101D5000180C002002B0BDE8F081FFF751FE0546E7
:101D600041F2883770688007D1D4FFF749FE401BE5
:101D7000B8424FF00300F5D9ECE70000002804BF9B
:101D8000012070472DE9F04381B042F20008C4F20F
:101D900002080446D8F800000D4600F00700814212
:101DA0000CD9D8F8000020F007002843C8F800003C
:101DB000D8F8000000F00700A8426BD1206841F27B
:101DC00004098107C4F2020917D5410705D5D9F8DE
:101DD000001041F4E061C9F80010010705D5D9F8F9
:101DE000001041F46051C9F80010D9F80010A26841
:101DF00021F0F0011143C9F80010C00741D1D8F813
:101E0000000000F0070085420CD2D8F8000020F056
:101E100007002843C8F80000D8F8000000F00700C9
:101E2000A84237D12068410707D5D9F80010E268E9
:101E300021F4E0611143C9F80010000708D5D9F872
:101E40000000216920F4605040EAC100C9F8000098
:101E5000D9F8002002F00C00082841F20020C0F25E
:101E60007A0049D145F25E53C2F38341C0F60003C4
:101E7000595CD20334D440F60010C0F23D00484310
:101E80003AE0606859F8041C022807D0012824D1E0
:101E9000890305D4012001B0BDE8F0838901F9D59B
:101EA000D9F8001021F003010843C9F80000FFF73A
:101EB000A7FD064641F28837D9F80000616800F0B6
:101EC0000C00B0EB810F9AD0FFF79AFD801BB8424F
:101ED000F2D9032001B0BDE8F0838907DAD5DFE746
:101EE000D9F8002045F2E803C2F34042C0F60003EF
:101EF0009A5C4843B0FBF2F0D9F8001045F2D002EA
:101F0000C1F30311C0F60002515C40F2040220FA52
:101F100001F140F20C00C2F200000068C2F20002BF
:101F20001160FFF795FD002001B0BDE8F0830000CF
:101F300040F2040041F20401C2F20000C4F20201C6
:101F40000068096845F2E002C1F30221C0F6000210
:101F5000515CC8407047000040F2040041F20401A7
:101F6000C2F20000C4F202010068096845F2E00212
:101F7000C1F3C221C0F60002515CC84070470000A6
:101F8000002804BF012070472DE9F04182B00446CB
:101F9000007841F20006C007C4F202060BD0706858
:101FA00000F00C00042876D13068800303D5606807
:101FB000002800F030812078800719D5706810F073
:101FC0000C0F07D0706800F00C0008287CD17068F6
:101FD000C00379D43068800703D52069012840F018
:101FE0001A813068616920F0F80040EAC100306071
:101FF0002078000713D42078400727D4E569002D06
:1020000000F00581706800F00C00082840F0968010
:10201000012D40F0F180012002B0BDE8F081A069FF
:10202000002877D00020C4F242200121C0F880149B
:10203000FFF7E6FC054600BF706A800700F1A1804B
:10204000FFF7DEFC401B0228F6D956E1F0695FEA93
:10205000C00808D4F06940F08050F061F06900F0E9
:1020600080500090009847F20007C4F200073868DB
:10207000C00541D4386840F480703860FFF7C0FC78
:10208000054600BF3868C00536D4FFF7B9FC401BD1
:102090006428F7D931E1706800F00C00082803D1FA
:1020A0007068C0033FF580AF61683068002900F0B8
:1020B000FA80B1F5A02F00F0EF80B1F5803F40F03D
:1020C000098140F480300BE12069002840F20000D3
:1020D000C4F2422000F07E8001210160FFF790FCF5
:1020E000054600BF306880073FF57BAFFFF788FCEF
:1020F000401B0228F6D900E1E168306A002900F0AF
:102100009580052900F08B80012940F0A68040F0E1
:102110000100A8E00020C4F242200021C0F8801491
:10212000FFF76EFC054600BF706A80077FF563AF5E
:10213000FFF766FC401B0228F6D9DEE00027C4F258
:10214000422700203866FFF75BFC022D05460DD1C3
:102150003068800140F1D580FFF752FC401B022817
:102160004FF00300F4D902B0BDE8F081306880017F
:102170004DD5FFF745FC401B02284FF00300F5D971
:10218000F1E740F20400C2F20000006844F6D351C7
:10219000C1F26201A0FB0101480A019000BF019851
:1021A000411E002801913FF426AF00BF0198411E57
:1021B000002801913FF41FAF00BF0198411E002885
:1021C00001913FF418AF00BF0198411E0028019112
:1021D000E4D110E700210160FFF712FC054600BFC3
:1021E000306880077FF504AFFFF70AFC401B022828
:1021F0004FF00300F4D9B6E77068216A00F480322A
:102200008A4208D1616A00F47010884203D100202C
:1022100002B0BDE8F081012002B0BDE8F08140F0DD
:1022200004003062306A40F001001CE020F0010040
:102230003062306A20F004003062FFF7E1FB0546AF
:1022400041F28837306A80071DD5FFF7D9FB401B64
:10225000B8424FF00300F5D985E720F00100306265
:10226000306A20F004003062FFF7CAFB054641F2F5
:10227000883700BF306A800705D4FFF7C1FB401BD9
:10228000B842F7D939E0B8F1000F3FF5B7AEF069C1
:1022900020F08050F061B1E640F48020306030687A
:1022A00040F480301CE020F480303060306820F44E
:1022B00080203060FFF7A4FB054600BF3068800334
:1022C0007FF579AEFFF79CFB401B64284FF00300BD
:1022D000F4D948E720F480303060306820F4802062
:1022E0003060FFF78DFB0546306880033FF563AE35
:1022F000FFF786FB401B6428F6D9032002B0BDE837
:10230000F081206AB0F5803F05D17168A26821F4A0
:102310000031114371607168626A21F474111143D4
:102320000843706001203866FFF76AFB044600BF6F
:10233000306880013FF56BAFFFF762FB001B02289E
:102340004FF00300F4D90EE7411E0020B0EB116FEF
:102350001CBF012070474EF21002CEF20002516005
:102360004EF62351CEF20001F0230B70072190604E
:1023700011607047704700007047000090F83C20E3
:10238000012A04BF02207047B0B501F108053CCD19
:10239000D1E900CE23F47C5322F470521A432EF478
:1023A000F0431A432CF4E0431A4324F4C0431A4385
:1023B0002A43C96922F48042036811435964002109
:1023C00080F83C100020B0BD90F83C20012A4FF06E
:1023D000020231D010B580F83D200268D2F804E046
:1023E000D2F808C00C682EF07003234340F2FF744B
:1023F000C4F20004A242536005DCB2F1804F0ED05B
:1024000040F2004307E042F60043C4F201039A425F
:1024100005D040F60003C4F200039A4204D1496893
:102420002CF08003194391600121002280F83D10B7
:1024300080F83C20BDE8104010467047002804BFDB
:102440000120704710B590F83D1031B9002180F897
:102450003C10044600F066F82046022180F83D104A
:10246000016840F2FF740B68C4F2000442F6004CAD
:10247000A142C4F2010C05DCB1F1804F0AD040F258
:10248000004203E0614505D040F60002C4F20002BC
:10249000914203D1826823F070031343A14205DC0B
:1024A000B1F1804F0AD040F2004203E0614505D00F
:1024B00040F60002C4F20002914203D1026923F403
:1024C00040731343846923F08002D0F804E0C368AA
:1024D000224361450A60CB62C1F828E002D142691B
:1024E000CCF8302001224A610B69DB0703D00B696D
:1024F00023F001030B6180F8462080F83E2080F82D
:102500003F2080F8402080F8412080F8422080F869
:10251000432080F8442080F8452080F83D200020AA
:1025200010BD000080B582B00068B0F1804F14D0BB
:1025300042F60041C4F2010188420CD141F2180078
:10254000C4F20200016841F400610160006800F417
:1025500000600190019802B080BD41F21800C4F201
:1025600002004168002241F0010141604068002101
:1025700000F00100009000981C20FFF7C9FA1C2011
:1025800002B0BDE88040FFF7B1BA000090F83D10FE
:1025900001291CBF01207047022180F83D1000680E
:1025A00040F2FF72C168C4F20002904241F00101A2
:1025B000C16005DCB0F1804F0ED040F2004107E071
:1025C00042F60041C4F20101884205D040F6000104
:1025D000C4F20001884206D1816801F00701062992
:1025E00004BF00207047016841F001010160002034
:1025F0007047000090F83C20012A4FF002026BD097
:1026000080B580F83D20D0F800C04FF67772DCF836
:10261000083023EA0202CCF808200B684F2B28DC94
:102620001F2B44DD202B45D0302B43D0402B40F0D6
:10263000AC80D1F804E0C968DCF82030DCF8202058
:1026400022F00102CCF82020DCF8182022F0F00261
:1026500042EA011123F00A0242EA0E02CCF81810F5
:10266000CCF82020DCF8081041F0470121F03001BF
:1026700027E06F2B32DDB3F5005F73D0B3F5805FD9
:1026800021D0702B40F08180D1E901E3C968DCF8EA
:10269000082043EA0E0322F47F4243EA012111435A
:1026A000CCF80810DCF8081041F0770109E00BB114
:1026B000102B6AD1DCF8081021F07001194341F0A9
:1026C0000701CCF808100022012180F83D100021FC
:1026D00080F83C10BDE8804010467047502B21D058
:1026E000602B52D1D1F804E0C968DCF82030DCF866
:1026F000202022F01002CCF82020DCF8182022F450
:10270000704242EA013123F0A00242EA0E12CCF8F4
:102710001810CCF82020DCF8081041F0670121F0F7
:102720001001CEE7D1F804E0C968DCF82030DCF80D
:10273000202022F00102CCF82020DCF8182022F022
:10274000F00242EA011123F00A0242EA0E02CCF83A
:102750001810CCF82020DCF8081041F0570121F0C7
:102760002001AEE7D1E901E3C968DCF8082043EABB
:102770000E0322F47F4243EA01211143CCF80810F2
:10278000DCF8081041F480419BE701229CE700003F
:102790007047000070B504460068C5680669B10757
:1027A00016D515F0020113D06FF00201016101216D
:1027B00021778069800703D02046FFF7E9FF05E015
:1027C000204600F0B9F8204600F02AFA00202077D1
:1027D000700718D515F0040015D020686FF00401BB
:1027E000016102212177806910F4407F03D02046E7
:1027F000FFF7CEFF05E0204600F09EF8204600F0EF
:102800000FFA00202077300717D515F0080014D0F4
:1028100020686FF00801016104212177C0698007F9
:1028200003D02046FFF7B4FF05E0204600F084F80F
:10283000204600F0F5F900202077F00618D515F0B5
:10284000100015D020686FF0100101610821217778
:10285000C06910F4407F03D02046FFF799FF05E0E0
:10286000204600F069F8204600F0DAF900202077D1
:10287000F00718BF15F0010002D1300609D412E0AC
:1028800020686FF001010161204600F02BFA30064C
:1028900009D515F0800006D020686FF08001016135
:1028A0002046FFF767FD700609D515F0400006D0F9
:1028B00020686FF040010161204600F041FAB00647
:1028C00058BF70BD15F0200008D021686FF02002BD
:1028D00020460A61BDE87040FFF74EBD70BD0000A4
:1028E00080B586B0014640F60000C4F201000968D8
:1028F00000F5105291424FF00001CDE90411CDE9ED
:10290000021101D006B080BD41F21801C4F20201EB
:102910000A6842F004020A60096801F004010191AA
:1029200001994FF44071029102210391059102A98E
:10293000FEF75EFF06B080BD7047000090F83C30A7
:10294000012B04BF022070474FEAB202032A00F2B3
:10295000EE802DE9F043DFE802F002A3397303684B
:1029600042F600461D6A1A6AC4F2010622F001020C
:102970001A621A465C6852F818CFB3428E68D1F8D2
:1029800000E025F0020545EA06050CD1CE68D1E944
:10299000057824F4407425F00C0526F004063C4329
:1029A000354344EA08042CF0730747EA0E075C60DD
:1029B0009F614F6809695F631D629F6947F008075F
:1029C0009F619F6927F004079F61A5E0036842F6B5
:1029D00000461D6A1A6AC4F2010622F480721A6265
:1029E0001A46D3F804C052F81CEFB3428E680C6844
:1029F00025F4007545EA06250FD1CE68D1E9059882
:102A0000360240F2FF4725F44065BE4335432CF4BF
:102A1000405748EA090647EA061C2EF07307274389
:102A2000C3F804C0DF614F680969DF631D62DF69B5
:102A300047F00807DF61DF6927F00407DF616BE01B
:102A4000036842F60047D3F820C01A6AC4F20107AF
:102A500022F480521A621A465C6852F81C5FD1F860
:102A600000E08E68BB4204D14F6924F4804444EAFC
:102A700087142CF4005747EA063725F4E64646EA61
:102A80000E265C60DE614E6809691E641F62DF69A4
:102A900047F40067DF61DF6927F48067DF613AE0B0
:102AA000036842F600461D6A1A6AC4F2010622F063
:102AB00010021A621A46D3F804C052F8184FB342F3
:102AC0008E68D1F800E025F0200545EA06150FD103
:102AD000CE68D1E905986FF0400725F0C00507EAF8
:102AE000061635432CF4406748EA090647EA860C87
:102AF00024F4E64444EA0E27C3F804C09F614F68FB
:102B000009699F631D629F6947F400679F619F6920
:102B100027F480679F61090213681943116000213F
:102B2000BDE8F043002280F83C20084670470121B0
:102B3000F8E70000002804BF0120704710B590F8A6
:102B40003D1031B9002180F83C10044600F066F8D1
:102B50002046022180F83D10016840F2FF740B68A6
:102B6000C4F2000442F6004CA142C4F2010C05DCA0
:102B7000B1F1804F0AD040F2004203E0614505D038
:102B800040F60002C4F20002914203D1826823F0B1
:102B900070031343A14205DCB1F1804F0AD040F22B
:102BA000004203E0614505D040F60002C4F2000295
:102BB000914203D1026923F440731343846923F0E3
:102BC0008002D0F804E0C368224361450A60CB620A
:102BD000C1F828E002D14269CCF8302001224A61D4
:102BE0000B69DB0703D00B6923F001030B6180F84D
:102BF000462080F83E2080F83F2080F8402080F872
:102C0000412080F8422080F8432080F8442080F85A
:102C1000452080F83D20002010BD000070470000D6
:102C200070470000A1B1042904D0082914BF412233
:102C3000402200E03F22825C012A11D102220829B1
:102C400010D0042914BF80F8412080F83F200BE009
:102C500090F83E20012A03D1022280F83E2003E0B2
:102C60000120704780F84020006801F01F01012218
:102C7000036A8A4023EA02010162036A42F6444180
:102C8000C4F201011A43A1F144039842026203D144
:102C90000A6842F400420A6040F2FF71C4F2000187
:102CA000884205DCB0F1804F0ED040F2004107E0D1
:102CB00042F60041C4F20101884205D040F600010D
:102CC000C4F20001884206D1816801F0070106299B
:102CD00004BF00207047016841F00101016000203D
:102CE000704700000068B0F1804F18BF7047B0B562
:102CF000FDF730FE40F24400C2F2000001F096F809
:102D00000025C4F2483529460446FDF71DFAFDF7B3
:102D100012FB014640F21400C2F2000001F052F82A
:102D200028462146FDF762FAFDF705FB014640F211
:102D30002C00C2F20000BDE8B04001F043B8000032
:102D4000704700007047000070470000B0B582B0C7
:102D500001680A68CC684B6902F02F05202D04F049
:102D6000200505D125B102B0BDE8B04001F0D2B9CF
:102D70005FEA027C1EBF03F0010E04F4907313EBB4
:102D80000E0340D1036BD50618D5012B16D114F0D4
:102D9000100313D0002201920A6801924A6801923E
:102DA000019A4969490649D4818DC28DC38D002B92
:102DB00018BF914240F0EB8102B0B0BD13062CD594
:102DC00014F0800329D090F84120212AF4D18268A0
:102DD000B2F5805F03D10269002A00F05B82026ACB
:102DE000531C036212784A60C28C013A1304C284F5
:102DF000E2D1C86820F08000C860C86840F0400098
:102E0000C86002B0B0BDD30718BF14F4807340F09F
:102E1000CA80530700F1CD80D2E05206CCD514F021
:102E20004002C9D0CA6822F04002CA60202180F85E
:102E3000411002B0BDE8B04000F06ABBC16B0A6847
:102E4000526893B2002BB7D0858DAB42B4D2C28505
:102E50008969202900F0A080016851E8031F0268F9
:102E600021F4807142E80313DBB1016851E8031FCC
:102E7000026821F4807142E8031393B1016851E8BC
:102E8000031F026821F4807142E803134BB101680B
:102E900051E8031F026821F4807142E80313002BFC
:102EA000DAD1016851E8051F026821F0010142E80A
:102EB0000513BBB3016851E8051F026821F0010149
:102EC00042E8051373B3016851E8051F026821F059
:102ED000010142E805132BB3016851E8051F0268A0
:102EE00021F0010142E80513002BDAD11AE0016854
:102EF00051E8051F026821F0400142E80513DBB1EB
:102F0000016851E8051F026821F0400142E80513FD
:102F100093B1016851E8051F026821F0400142E8C1
:102F200005134BB1016851E8051F026821F040010B
:102F300042E80513002BDAD1202180F8421000214D
:102F40000163016851E8031F026821F0100142E8A3
:102F50000313DBB1016851E8031F026821F010017F
:102F600042E8031393B1016851E8031F026821F09E
:102F7000100142E803134BB1016851E8031F0268D6
:102F800021F0100142E80313002BDAD1C16B044693
:102F90000846FEF759FA204602214163818DC28D11
:102FA000891A89B26CE1436C43F00103436453070F
:102FB00006D5BEF1000F03D0436C43F00203436417
:102FC000930706D5BEF1000F03D0436C43F0040312
:102FD0004364BCF1000F06D55EEA050303D0436CE1
:102FE00043F008034364436C002B3FF4E5AE9206C4
:102FF00005D525B1044601F08DF8216820464969C0
:10300000426C01F0400102F00802891800F0B8801B
:10301000016851E8031F026821F4907142E803132C
:10302000BBB3016851E8031F026821F4907142E8C4
:10303000031373B3016851E8031F026821F4907110
:1030400042E803132BB3016851E8031F026821F41F
:10305000907142E80313002BDAD11AE0016851E8BD
:10306000051F026821F0010142E80513DBB1016888
:1030700051E8051F026821F0010142E8051393B1F0
:10308000016851E8051F026821F0010142E80513BB
:103090004BB1016851E8051F026821F0010142E8C7
:1030A0000513002BDAD1016B012924D1016851E805
:1030B000031F026821F0100142E80313DBB101682D
:1030C00051E8031F026821F0100142E8031393B195
:1030D000016851E8031F026821F0100142E8031360
:1030E0004BB1016851E8031F026821F0100142E86A
:1030F0000313002BDAD1202180F842100021016354
:1031000001684969490640F1C080016851E8051F1E
:10311000026821F0400142E80513DBB1016851E883
:10312000051F026821F0400142E8051393B10168D0
:1031300051E8051F026821F0400142E805134BB138
:10314000016851E8051F026821F0400142E80513BB
:10315000002BDAD1C16B002900F0978044F20912EC
:10316000C0F60002044608464A63FEF78DF90028BF
:103170003FF422AEE06B416B02B0BDE8B0400847BF
:103180000446FFF7E1FD0020606402B0B0BD891A7B
:10319000026852E8032F036822F4907243E8032583
:1031A000BDB3026852E8032F036822F4907243E82B
:1031B000032575B3026852E8032F036822F4907266
:1031C00043E803252DB3026852E8032F036822F475
:1031D000907243E80325002DDAD11AE0026852E824
:1031E000052F036822F0010243E80525DDB10268DE
:1031F00052E8052F036822F0010243E8052595B146
:10320000026852E8052F036822F0010243E8052511
:103210004DB1026852E8052F036822F0010243E82D
:103220000525002DDAD1202280F8422000220263F9
:10323000026852E8032F036822F0100243E80325D6
:10324000DDB1026852E8032F036822F0100243E860
:10325000032595B1026852E8032F036822F010029B
:1032600043E803254DB1026852E8032F036822F0BA
:10327000100243E80325002DDAD1022289B242630D
:1032800002B0BDE8B040FFF75DBD02B0BDE8B040A0
:10329000FFF75ABD026A32F8023B6FF35F234B60BF
:1032A0000262A1E5002804BF0120704710B5044662
:1032B00090F8410028B9002084F84000204600F032
:1032C00061F8242084F841002068D4E90212C36820
:1032D00023F40053C360036923F440531A4302618B
:1032E000D4E904231143C268194341F20C639A43A1
:1032F0001143C1604169A26921F44071114343F651
:103300000002C4F201029042416102D0FEF710FEB9
:1033100001E0FEF721FED4E900231921484399007A
:10332000B0FBF1F048F21F5CC5F2EB1CA0FB0C31C6
:103330004FF69C734909C0F6FF7301FB030032236B
:1033400003EB0010A0FB0C03F02000EA531000EB8D
:103350000110C3F34311084490601069202120F448
:1033600090401061506920F02A005061D06840F40C
:103370000050D0600020606484F8411084F842104E
:10338000606310BD70B586B040F60044C4F201041D
:10339000006804F53051002688420596CDE90366A1
:1033A000029601D006B070BD41F21800C4F20200CE
:1033B000016802AD41F480410160016801F480417F
:1033C00001910199016841F00801016000682946F6
:1033D00000F0080001900198402002900220039024
:1033E000032005902046FEF703FA8020CDE902066F
:1033F000204629460496FEF7FBF90420C4F201009A
:103400000168002241F0E06141F0040101602520E3
:103410000021FEF77DFB2520FEF768FB06B070BD9E
:10342000704700002DE9F04381B0044690F8410058
:10343000202809D1894600294FF0010018BF002A31
:1034400006D101B0BDE8F083022001B0BDE8F083F1
:103450000020606421201D4684F841001646FEF7D6
:10346000CFFAA684E684A1680646B1F5805F02D152
:103470002069002848D0C8464FF00009E18C206838
:1034800021B36F1C0AE0B8F1000F18D018F8011B27
:103490004160E18C0139E184E18CB9B10168090630
:1034A000F1D4002FFAD0FEF7ABFA01464FF003003B
:1034B00025B3891BA94221D82068C168EEE739F8F5
:1034C000021B4FF000086FF35F21E1E70168490636
:1034D00013D46F1C03E000BF016849060DD4002F10
:1034E000FAD0FEF78DFA01464FF0030035B1891B83
:1034F000A94203D82068C168EEE70020202184F8A3
:10350000411001B0BDE8F0834FF00008B6E70000BD
:1035100070470000FEE700002DE9F04381B08146CE
:103520002A20984615460E46541E5F1E00F0AAFB40
:10353000484600F0F3F9A0B200F0F0F92B2000F0BB
:10354000A1FB304600F0EAF9B8B200F0E7F92C2010
:1035500000F098FB464511D2089C03E00136B0B25A
:1035600040450BD2A945F9D24F4600BF204600F096
:10357000D5F90137B8B2A842F8D3EFE701B0BDE8FA
:10358000F083000010B540F60004C4F201042046A8
:1035900040210022FEF72EFA6420FEF715F920469E
:1035A00040210122FEF726FA6420FEF70DF920469D
:1035B00008210122FEF71EFA6420FEF705F911200A
:1035C00000F060FB7820FEF7FFF8B12000F05AFB16
:1035D000052000F0C3FA3C2000F0C0FA3C2000F0C7
:1035E000BDFAB22000F04EFB052000F0B7FA3C20F7
:1035F00000F0B4FA3C2000F0B1FAB32000F042FB36
:10360000052000F0ABFA3C2000F0A8FA3C2000F0C6
:10361000A5FA052000F0A2FA3C2000F09FFA3C2019
:1036200000F09CFAB42000F02DFB032000F096FA85
:10363000C02000F027FB282000F090FA082000F0BE
:103640008DFA042000F08AFAC12000F01BFBC02094
:1036500000F084FAC22000F015FB0D2000F07EFA85
:10366000002000F07BFAC32000F00CFB8D2000F05E
:1036700075FA2A2000F072FAC42000F003FB8D20B6
:1036800000F06CFAEE2000F069FAC52000F0FAFABA
:103690001A2000F063FA362000F0F4FAC02000F09F
:1036A0005DFAE02000F0EEFA042000F057FA222044
:1036B00000F054FA072000F051FA0A2000F04EFA08
:1036C0002E2000F04BFA302000F048FA252000F0C0
:1036D00045FA2A2000F042FA282000F03FFA26207E
:1036E00000F03CFA2E2000F039FA3A2000F036FAC9
:1036F000002000F033FA012000F030FA032000F03F
:103700002DFA132000F02AFAE12000F0BBFA042081
:1037100000F024FA162000F021FA062000F01EFA2C
:103720000D2000F01BFA2D2000F018FA262000F0E2
:1037300015FA232000F012FA272000F00FFA2720B4
:1037400000F00CFA252000F009FA2D2000F006FA0E
:103750003B2000F003FA002000F000FA012000F006
:10376000FDF9042000F0FAF9132000F0F7F93A20EF
:1037700000F088FA052000F0F1F92920BDE810409A
:1037800000F080BA2DE9F04F87B0DDF844A0804604
:103790004FEA5A054FEA1A1B012006930F466907A4
:1037A00018BF00EB1A1B08EB5A00461E07EB0A0075
:1037B000A0F101092A20144600F064FA4046CDF831
:1037C000148000F0ABF8B0B200F0A8F82B2000F0A5
:1037D00059FA3846049700F0A1F81FFA89F000F072
:1037E0009DF82C2000F04EFABAF10C0F6FD10BFBB4
:1037F0000AF0002802906AD0A4F12000C1B245F27C
:10380000EA02DDF8489001EB4101C0F60002059E96
:10381000002002EB8101012400224FF000080191F9
:1038200008E04FF0000800BF039A0299013290B2FD
:1038300081424CD901994FF0000B11F800A003927E
:1038400016E000BF00280698109908BF084600F04F
:1038500065F808F101085FFA88F0B0FBF5F101FBAB
:1038600015000028DDD00BF1010BBBF1080FDBD0F8
:1038700004FA0BF0B9F1000F00EA0A00E2D0D8B167
:103880002A2000F0FFF9B7B2384600F047F8384672
:1038900000F044F82B2000F0F5F9049887B2384680
:1038A00000F03CF83846012400F038F82C2000F0F5
:1038B000E9F9069800F032F801360599B0B2401ADD
:1038C000A842D0D10498059E01300490ACE707B01F
:1038D000BDE8F08F2DE9F04F83B09B461378CBB154
:1038E000DDE90C9ADDF838800D4606464FEA5A07A6
:1038F000541E00BFB0B2DAB229465B46CDE9009A49
:10390000CDF80880FFF73EFFA3783E44002B04F17A
:103910000104EFD103B0BDE8F08F0000F0B581B035
:1039200040F60005C4F2010505F580640646204610
:1039300001210022FEF75EF8284680210022FEF7D2
:1039400059F8F20B20460221FEF754F82846802150
:103950000122FEF74FF8284680210022FEF74AF8A0
:10396000C6F3803220460221FEF744F82846802123
:103970000122FEF73FF8284680210022FEF73AF8A0
:10398000C6F3403220460221FEF734F82846802153
:103990000122FEF72FF8284680210022FEF72AF8A0
:1039A000C6F3003220460221FEF724F82846802183
:1039B0000122FEF71FF8284680210022FEF71AF8A0
:1039C000C6F3C02220460221FEF714F828468021C3
:1039D0000122FEF70FF8284680210022FEF70AF8A0
:1039E000C6F3802220460221FEF704F828468021F3
:1039F0000122FDF7FFFF284680210022FDF7FAFF94
:103A0000C6F3402220460221FDF7F4FF284680211C
:103A10000122FDF7EFFF284680210022FDF7EAFF93
:103A2000C6F3002220460221FDF7E4FF284680214C
:103A30000122FDF7DFFF204601210122FDF7DAFF19
:103A4000204601210022F7B2FDF7D4FF284680214D
:103A50000022FDF7CFFFFA0920460221FDF7CAFF39
:103A6000284680210122FDF7C5FF2846802100223B
:103A7000FDF7C0FFC6F3801220460221FDF7BAFF12
:103A8000284680210122FDF7B5FF2846802100222B
:103A9000FDF7B0FFC6F3401220460221FDF7AAFF52
:103AA000284680210122FDF7A5FF2846802100221B
:103AB000FDF7A0FFC6F3001220460221FDF79AFF92
:103AC000284680210122FDF795FF2846802100220B
:103AD000FDF790FFC6F3C00220460221FDF78AFFE2
:103AE000284680210122FDF785FF284680210022FB
:103AF000FDF780FFC6F3800220460221FDF77AFF22
:103B0000284680210122FDF775FF284680210022EA
:103B1000FDF770FFC6F3400220460221FDF76AFF61
:103B2000284680210122FDF765FF284680210022DA
:103B3000FDF760FF06F0010220460221FDF75AFF63
:103B4000284680210122FDF755FF20460121012250
:103B500001B0BDE8F040FDF74DBF000070B540F684
:103B60000005C4F2010505F58064064620460121E2
:103B70000022FDF73FFF284680210022FDF73AFF93
:103B8000F20920460221FDF735FF28468021012257
:103B9000FDF730FF284680210022FDF72BFFC6F3FA
:103BA000801220460221FDF725FF284680210122B0
:103BB000FDF720FF284680210022FDF71BFFC6F3FA
:103BC000401220460221FDF715FF284680210122E0
:103BD000FDF710FF284680210022FDF70BFFC6F3FA
:103BE000001220460221FDF705FF28468021012210
:103BF000FDF700FF284680210022FDF7FBFEC6F3FB
:103C0000C00220460221FDF7F5FE28468021012250
:103C1000FDF7F0FE284680210022FDF7EBFEC6F3FB
:103C2000800220460221FDF7E5FE28468021012280
:103C3000FDF7E0FE284680210022FDF7DBFEC6F3FB
:103C4000400220460221FDF7D5FE284680210122B0
:103C5000FDF7D0FE284680210022FDF7CBFE06F0BE
:103C6000010220460221FDF7C5FE284680210122DF
:103C7000FDF7C0FE204601210122BDE87040FDF79E
:103C8000B9BE000070B540F60004C4F20104064657
:103C9000204604210022FDF7ADFE04F5806528468C
:103CA00001210022FDF7A6FE204680210022FDF71B
:103CB000A1FEF20928460221FDF79CFE2046802144
:103CC0000122FDF797FE204680210022FDF792FE9B
:103CD000C6F3801228460221FDF78CFE2046802183
:103CE0000122FDF787FE204680210022FDF782FE9B
:103CF000C6F3401228460221FDF77CFE20468021B3
:103D00000122FDF777FE204680210022FDF772FE9A
:103D1000C6F3001228460221FDF76CFE20468021E2
:103D20000122FDF767FE204680210022FDF762FE9A
:103D3000C6F3C00228460221FDF75CFE2046802122
:103D40000122FDF757FE204680210022FDF752FE9A
:103D5000C6F3800228460221FDF74CFE2046802152
:103D60000122FDF747FE204680210022FDF742FE9A
:103D7000C6F3400228460221FDF73CFE2046802182
:103D80000122FDF737FE204680210022FDF732FE9A
:103D900006F0010228460221FDF72CFE2046802174
:103DA0000122FDF727FE284601210122FDF722FE10
:103DB000204604210122BDE87040FDF71BBE000033
:103DC000FEE700004FF0FF3CB1F1FF3F0A46C8BFDD
:103DD0004FF0010C002948BF4A4280B58368B2F514
:103DE0007A7F28BF4FF47A72C0E9002C5BB1082BB0
:103DF00006D0042B14BF4FF0400E4FF0380E04E0F5
:103E00004FF03C0E01E04FF0340ED0E9033C1B684C
:103E100043F80E20838AC843C20F60461946BDE8A6
:103E20008040FDF7E7BD0000FEE70000002804BF6A
:103E3000002070472DE9F04F83B0876B0446384669
:103E40000021FCF765FA08B3D4E903094946FCF7F9
:103E5000CDF994F83C1094F840A083460291F9B152
:103E60002668BAF1000F5ED058463146FCF7C4F917
:103E7000616805465846FCF7BFF901463846FCF72D
:103E8000BBF901462846FCF75FF987E094F83C004F
:103E90001021012808BF3421605803B0BDE8F08F1D
:103EA000D4E90015666A5846CDF804A0FCF7A4F9D9
:103EB000804658462946FCF79FF93946FCF79CF99D
:103EC0003146FCF741F994F83F1006466062C1B1F3
:103ED000CDF80080C846D4E9075930464946FCF77A
:103EE00017FA824630462946FCF704FA002818BF24
:103EF0002E46BAF1000F18BF4E46C146DDF80080CD
:103F00006662D4F808A0002150460025FCF7E4F9C9
:103F1000002855D1019994F83D00002942D000288D
:103F200042D100254CE0CDE9009AD4F828A0D4E98C
:103F3000015958465146FCF759F901463046FCF7FD
:103F40005BF9064658462946FCF756F901463846BD
:103F5000FCF752F90546484600214FF00008FCF7EF
:103F6000BBF990B950465146FCF7EEF80146584669
:103F7000FCF73CF9E16AFCF7E7F801464846FCF734
:103F80003BF93946FCF76AF9804630462946FCF78A
:103F9000DBF84146FCF7D8F8DDE9009A616BFCF7E5
:103FA000D3F816E000284ED0206B4946FCF71EF9E6
:103FB00001465046FCF720F93946FCF74FF9054613
:103FC00040463146FCF7C0F82946FCF7BDF8DDF85D
:103FD00004A094F83E1099B1D4E905670546394626
:103FE000FCF796F9804628463146FCF783F90146EE
:103FF0002846002918BF3046B8F1000F18BF3846D0
:104000000299012906D1BAF1000F606315D0C4E905
:104010000ABB0CE029B994F83D10002918BFC4F878
:104020003090BAF1000FC4F828B03FF436AF002149
:1040300084F8401003B0BDE8F08FA16AC4E90AB16A
:1040400003B0BDE8F08FA16A5846AFE7002808BF6B
:1040500070472DE9F0410139DDE90A78B1FA81F1C3
:10406000DDE906EC490980F83C10002F41460C9E22
:10407000DDE9085480E80C40C0F838C018BF0127BB
:1040800080F83D70B8F1000F18BF012180F83E1094
:104090000021002E18BF012680F83F60C0E90415FA
:1040A000C0E90645C0E90841C0E90A1101630746B5
:1040B0002046FCF71FF9064628460021FCF728F9A0
:1040C000002818BF2846002E18BF2046B8F1000F60
:1040D00008BF40467863012087F84000BDE8F04102
:1040E00070470000002818BFC1607047704700008B
:1040F00070470000FDF78ABC7047000040F20C20BA
:10410000C2F20000FEF746BB406A0021C185C184AF
:10411000FEF71ABE81B090F84210222920D18368A0
:104120000246B3F5805F08D152F8281F52F8183CB8
:10413000002B61D003685B6809E052F8281F13B9AF
:104140000369002BF6D003685B6803F07F030B70F4
:10415000116801311160C18D01390A04C18501D096
:1041600001B070470168CA6822F02002CA60CA68BC
:1041700022F48072CA604A6922F001024A61202159
:1041800080F8421000214163026B012A3CD1016397
:10419000016851E8031F026821F0100142E803138F
:1041A000DBB1016851E8031F026821F0100142E809
:1041B000031393B1016851E8031F026821F0100155
:1041C00042E803134BB1016851E8031F026821F074
:1041D000100142E80313002BDAD101680A68D20605
:1041E00006D5002200920A68009249680091009961
:1041F000818D01B0FEF7A6BD026852686FF35F22A1
:1042000021F8022B8162A6E701B0FFF709B900008F
:1042100040F25420C2F20000FEF798BDFEE7000015
:1042200080B582B0019040F25420C2F2000001A992
:1042300001224FF0FF33FFF7F5F8019802B080BD7F
:10424000A2B0FDF7F1FB00240120CDE90C44CDE93B
:104250000A4407900B904FF4E0104FF48031022590
:10426000109007A82194CDE91F44CDE90814CDE9A9
:104270000E51FDF785FE20B1EFF3108072B600BF3E
:10428000FEE70F20CDE914054FF48060CDE9170457
:1042900014A802211694FDF771FD20B1EFF31080F0
:1042A00072B600BFFEE74FF40040022420901EA823
:1042B0001E94FDF7E3FC20B1EFF3108072B600BF4F
:1042C000FEE74FF0000841F21807CDE90988CDE973
:1042D0000788C4F20207386840F6000940F0200061
:1042E00038603868C4F2010900F020001490149876
:1042F000386840F6CC4140F004003860386800224D
:1043000000F0040014901498386840F6CC4640F051
:1043100008003860386800F0080014901498484687
:10432000FDF768FB09F580652846032100224FF060
:10433000030BFDF75FFB079607AE4FF0010A4846F7
:104340003146CDE908A80A94FDF752FA28463146CD
:10435000CDE907BACDE90984FDF74AFA57F8040C0C
:10436000002140F0010047F8040C57F8040C00222B
:1043700000F00100079007980B20FDF7C9FB0B2008
:10438000FDF7B4FB40F2501009F5E051C2F2000015
:104390004FF480724FF46023C0E90018042180F8C4
:1043A0000CA080F81480C36182600161FCF7BAFE42
:1043B00018B1EFF3108072B6FEE70520099040F2C5
:1043C0005010C2F2000007A9CDE9078AFCF756FD9C
:1043D00018B1EFF3108072B6FEE7012007900220BB
:1043E000089040F25010C2F2000007A9FCF746FD09
:1043F00018B1EFF3108072B6FEE70320089040F288
:1044000050100424C2F2000007A90794FCF736FDFF
:1044100018B1EFF3108072B6FEE70520CDE907046E
:1044200040F25010C2F2000007A9FCF727FD20B1AE
:10443000EFF3108072B600BFFEE740F2C410002117
:1044400009F51052C2F20000472340F2E7378026F8
:104450002191CDE91F11CDE91C110D91C0E9002377
:10446000C0E90217C0E904118661FDF7E7FF20B13A
:10447000EFF3108072B600BFFEE74FF480501E903D
:1044800040F2C410C2F200001EA9FEF7B3F820B13A
:10449000EFF3108072B600BFFEE740F2C410C2F224
:1044A0000000FEF747FB18B1EFF3108072B6FEE78D
:1044B00040F2C410C2F200001CA9FDF785FF18B13C
:1044C000EFF3108072B6FEE7602014900020CDE973
:1044D0001500CDE91700CDE9190040F2C410C2F271
:1044E000000014A90022FEF729FA18B1EFF310809A
:1044F00072B6FEE740F2C410C2F2000014A9042212
:10450000FEF71CFA18B1EFF3108072B6FEE74FF415
:1045100000500C9040F2C4100024C2F2000007A921
:104520000B94CDE90944CDE907440E94FDF726FF2D
:1045300018B1EFF3108072B6FEE740F2C415C2F274
:1045400000052846FEF7CCF940F20C20C2F200002C
:104550004FF08041472244F61F6380E81600802117
:104560000A94CDE90844CDE91444C0E903348161DB
:10457000FDF764FF18B1EFF3108072B6FEE74FF459
:104580008050079040F20C20C2F2000007A9FEF70D
:1045900031F818B1EFF3108072B6FEE740F20C204C
:1045A000C2F2000014A9FDF70FFF18B1EFF310805D
:1045B00072B6FEE740F2542009F54051C2F2000005
:1045C00000264FF00C084FF4E13280E84600C0E9C5
:1045D0000366C0E90586C661FEF764FE18B1EFF315
:1045E000108072B6FEE740F21400C2F200004FF4F1
:1045F00080618182C0E90265C0F8109040F22C0011
:10460000C2F200004FF4006181820421083080E88A
:104610002202FEF7B7FF002000218022A02300968F
:10462000FEF77AFF00214DF20A7240F244040120A5
:10463000C4F27A41C3F62342C2F20004CDE900621B
:10464000CDE90261CDE90400204600214FF07C5203
:1046500000230696FFF7FAFC20460021FFF742FDF3
:1046600040F25014C2F200042046FCF77FFB40F2F7
:10467000A801C2F2000120460422FCF755FE40F2D8
:104680000C20C2F20000FDF781FF28460021FEF752
:10469000C9FA28460421FEF7C5FA40F2880907AD99
:1046A000C2F200090FF2D80A0FF2E00B3AA43DA7BC
:1046B00028463221FBF73DFDD9F80000FBF754FEF8
:1046C00002460B4628462BA100F080F8002000216E
:1046D0002A464FF6FF73CDE900680296FFF7FAF815
:1046E000D9F80400FBF740FE02460B462846514627
:1046F00000F06CF800200D212A464FF6FF73CDE93B
:1047000000680296FFF7E6F8D9F80800FBF72CFEE0
:1047100002460B462846594600F058F800201A2158
:104720002A464FF6FF73CDE900680296FFF7D2F8EC
:10473000D9F80C00FBF718FE02460B462846214626
:1047400000F044F8002027212A464FF6FF73CDE9F8
:1047500000680296FFF7BEF840F24400C2F2000083
:104760000069FBF701FE024638460B4600F01EF8D2
:104770009EE700BF496E313A252E326600000000E8
:10478000496E323A252E326600000000496E333AF7
:10479000252E326600000000496E343A252E32661E
:1047A00000000000252E32660A0000000FB4054B01
:1047B00010B503A9044A029800F0EEF810BC5DF8A9
:1047C00014FB000021420008000000200FB4084B39
:1047D00010B504A902AA039800F0DEF8044602A965
:1047E000002000F070FC204610BC5DF814FB0000B7
:1047F000C750000802E008C8121F08C1002AFAD1F9
:1048000070477047002001E001C1121F002AFBD150
:10481000704700002DE9FF5F82B00021DDE9043020
:10482000020DDDF840B0034318D044F61050A2F258
:10483000FF3242431514119801281FD0A5EB0B003D
:10484000401C5FEA000A4FF000064E4FDFF8389137
:10485000B046504615D5CAF1000413E01198012462
:104860004AA3012801D16FEA0B010298119AC0E90D
:104870000031C0E9024206B0BDE8F09FCBF1000074
:10488000DFE704460021404A491842EB0450CDE9D5
:10489000001012E0E00707D032463B46404649464A
:1048A000FBF79AFE8046894632463B46104619463B
:1048B000FBF792FE06460F466410002CEAD1DDE9B4
:1048C0000401DDE90023BAF1000F06DAFBF784FEEC
:1048D00042464B46FBF780FE05E0FBF7EFFE424603
:1048E0004B46FBF7EBFE04460E460022284BFBF737
:1048F0006DFF03D84FF0FF30014607E00022254B43
:1049000020463146FBF7C1FDFBF747FF102409E0C5
:10491000002C0ADB0A220023FBF74FFD039B3032F9
:104920001A55641E50EA0102F2D1641C039AC4F1C4
:1049300011031444119A012A03D0012208430DD116
:104940000AE0084304D000204FF0110B119072E7E9
:10495000A3EB0B056D1E0DE05B4504DD4FF000027F
:1049600005F1010504E003DA4FF00002A5F10105AD
:10497000002AECD002981199C0E90231C0E9004543
:1049800079E70000000014400000F03F3000000014
:104990000000F0430000E03F2DE9FF4F95B09B463B
:1049A0008946064600250FE2252877D100242746B0
:1049B000F84A0121059400E0044316F8013F203B2A
:1049C00001FA03F01042F7D130782A2811D06FF0A5
:1049D0002F033078A0F13002092A16D8059A44F046
:1049E000020402EB820203EB42021044761C0590A3
:1049F000EFE759F8042B0592002A03DA504244F4F9
:104A00000054059044F00204761C30782E2816D10C
:104A100016F8010F44F004042A280DD06FF02F027D
:104A20003078A0F13003092B09D807EB870302EB9C
:104A30004303C718761CF3E759F8047B761C3078DB
:104A40006C280FD006DC4C2817D068280DD06A28B7
:104A500014D104E0742810D07A280FD10DE044F46A
:104A600000140AE044F4801401E044F44014727825
:104A7000824202D104F58014761C761C30786628B8
:104A80000BD013DC582877D009DC002875D04528D6
:104A9000F6D04628F4D047281AD19DE118E06328C3
:104AA00035D0642879D0652812D195E1702873D06B
:104AB00008DC6728F1D069286FD06E280DD06F28E8
:104AC00006D1B5E073282CD0752875D0782874D01D
:104AD0005A46179990476D1C75E1C4F3025002289D
:104AE00009D003280DD0D9F8001004280DD00D608E
:104AF00009F1040967E1D9F80010EA17C1E9005289
:104B0000F6E7D9F800100D80F2E70D70F0E719F81C
:104B1000041B8DF8001000208DF80100EA460120EA
:104B200003E059F804AB4FF0FF3061074FF000018C
:104B300002D40DE008F101018846B9420FDA804540
:104B4000F8DB1AF808100029F4D108E008F1010197
:104B500088468142FADB1AF808100029F6D1059838
:104B60005B46A0EB080721463846179A00F094FAF6
:104B7000284400EB080507E04DE029E10DE01AF8B4
:104B8000010B5A4617999047B8F10108F7D25B46D6
:104B900021463846179A13E142E00A220092C4F3F4
:104BA00002524FF0000A022A08D059F804CB032A17
:104BB0004FEAEC710AD00DE029E02AE009F1070183
:104BC00021F00702F2E802C1914609E00FFA8CFCDD
:104BD0004FEAEC71042A03D14FFA8CFC4FEAEC71D6
:104BE000002907DA0A460021DCF1000C61EB020122
:104BF0002D2202E0220504D52B228DF8042001226B
:104C000003E0E20701D02022F7E7904659E00A21AD
:104C100002E010220DE010214FF0000A00910BE09D
:104C200010224FF0000A44F004040827009203E029
:104C300008224FF0000A0092C4F30252022A05D063
:104C400059F804CB0021032A08D009E009F1070133
:104C500021F00702F2E802C1914605E01FFA8CFC40
:104C6000042A01D10CF0FF0C4FF00008220728D5D0
:104C7000702806D0009B83F0100353EA0A0305D086
:104C80000EE040228DF80420012208E05CEA0102D7
:104C900006D030228DF804208DF8050002229046BF
:104CA000009B83F0080353EA0A030AD15CEA01027D
:104CB00001D1620705D530228DF804204FF001089C
:104CC0007F1E582804D034A003900EA802900DE057
:104CD00036A0F9E753466046009AFBF76EFB844620
:104CE0000398825C0298401E029002705CEA010008
:104CF000F0D1029806A9081A00F1200A600702D52F
:104D000024F4803400E00127574502DDA7EB0A00B8
:104D100000E0002000EB0A01009005984144401A91
:104D20000590E00306D45B462146179A059800F0EB
:104D3000B3F90544002706E001A85A46C05D17995B
:104D400090476D1C7F1C4745F6DBE0030CD55B46A6
:104D50002146179A059800F09FF9054404E0302099
:104D60005A46179990476D1C0099481E00900029DB
:104D7000F5DC08E0029802995A460078491C029135
:104D8000179990476D1CBAF10001AAF1010AF1DCF4
:104D900065E10000092801003031323334353637FF
:104DA0003839616263646566000000003031323377
:104DB0003435363738394142434445460000000017
:104DC00000F058F90544761C307800287FF4ECADEB
:104DD00019B02846BDE8F08F620700D4062709F114
:104DE000070222F0070CFCE80223E14603F000482A
:104DF0005FEA080C02D00FF2702C0DE05FEA045C51
:104E000002D50FF2682C07E05FEAC47C02D00FF2F3
:104E1000602C01E0AFF2700C4FF0FF3823F000433C
:104E2000CDF850C065280CD006DC452809D04628AE
:104E30001DD047283DD13DE0662818D067287ED197
:104E400038E00021112F01DB112000E0781CCDE9B2
:104E5000000106A90EA8FFF7DDFCDDE90F010E9A9F
:104E600003910021009207F1010A04914DE04FF0F7
:104E700000400097CDE9011006A90EA8FFF7CAFC73
:104E8000DDE90F0203920E9B11990022DDF80CA0C0
:104E90000093049211B9791C00EB010AB7EB0A00E8
:104EA00004D4C0F1FF3007F1010A0490AAEB070017
:104EB000019044E0012F00DA01270021112F01DDCC
:104EC000112000E03846CDE9000106A90EA8FFF741
:104ED000A1FCDDE90F010E9A0391002104910092DB
:104EE000BA4621070CD40399514500DA8A46BAF133
:104EF000010F05DD009AAAF10101515C302908D0AB
:104F0000B84202DA10F1040F06DA0121CDE90110EE
:104F100015E0AAF10101E9E7002805DC0499014444
:104F20000491AAEB000102E0411C514500DD8A46D4
:104F30000499401A401C01904FF000400290200755
:104F400004D40198504501DBCDF8048000208DF891
:104F50004F0002980DF14F07B0F1004F25D02B20E4
:104F60000E9002984FF0020800280CDA404202909E
:104F70002D200E9007E00A210298FBF708FA303145
:104F8000029007F8011DB8F10001A8F10108F2DC58
:104F900002980028EFD1791E0E980870307800F042
:104FA000200040F0450007F8020D12A8C01B00F1D8
:104FB00007081498007800B1012000EB0A0101985D
:104FC00001EBE07105984144401A401E0590E00352
:104FD00006D45B462146179A059800F05DF8054413
:104FE0001498007818B15A46179990476D1CE00341
:104FF00024D55B462146179A059800F04DF80544E4
:105000001CE00498002807DBDDE90301884203DD8A
:105010000098405C179901E0179930205A46904754
:10502000049805F10105401C04900198401E019070
:1050300004D12E205A46179990476D1CBAF10001F1
:10504000AAF1010ADDDC05E017F8010B5A461799B1
:1050500090476D1CB8F10001A8F10108F4DC5B4633
:105060002146179A0598ABE62D0000002B000000A2
:10507000200000002DE9F041044600251E46174699
:10508000880404D405E039462020B0476D1C641E16
:10509000F9D52846BDE8F0812DE9F0410446002508
:1050A0001E469046C80301D5302700E0202788041B
:1050B00004D505E041463846B0476D1C641EF9D55D
:1050C0002846BDE8F0810A68531C0B6010707047D9
:1050D00000000000000000000102030406070809A8
:1050E00000000000010203040102000000000000B3
:1050F0000000000000000000040404040400000498
:10510000000014140A00000000000000000000006D
:105110000A0A1F0A0A1F0A0A000000040E150506E3
:105120000C14150E0400000012150D152E2C2A1259
:1051300000000000040A0A361515291600000202B4
:105140000100000000000000000010080804040432
:1051500004040808100002040408080808080404ED
:10516000020000000004150E0E15040000000000EF
:105170000008083E080800000000000000000000D1
:1051800000000202010000000000003F00000000DB
:1051900000000000000000000000000200000020ED
:1051A0001010080804040202010000000E11111181
:1051B0001111110E00000000040604040404040E82
:1051C000000000000E1111080402011F0000000081
:1051D0000E11100C1010110E00000000080C0C0A2B
:1051E000091F081C000000001F01010F1110110E03
:1051F000000000000C12010D1311110E0000000040
:105200001E10080804040404000000000E11110E12
:105210001111110E000000000E11111916100906CF
:105220000000000000000400000000040000000076
:105230000000000400000004040000001008040244
:10524000020408100000000000003F003F000000C2
:105250000000000002040810100804020000000012
:105260000E11110804040004000000001C22292D66
:105270002D1D221C0000000004040C0A0A1E12331B
:10528000000000000F12120E1212120F0000000098
:105290001E1101010101110E000000000F12121277
:1052A0001212120F000000001F120A0E0A02121F33
:1052B000000000001F120A0E0A0202070000000090
:1052C0001C1201013911120C000000003312121ED1
:1052D00012121233000000001F0404040404041F0F
:1052E000000000003E080808080808080907000038
:1052F00037120A060A1212370000000007020202E3
:105300000202223F000000003B1B1B1B1515153538
:10531000000000003B1216161A1A121700000000B7
:105320000E1111111111110E000000000F12120EBA
:1053300002020207000000000E1111111117190ED0
:10534000180000000F12120E0A121237000000009F
:105350001E1101060810110F000000001F150404A3
:105360000404040E00000000331212121212120C78
:10537000000000003312120A0A0C040400000000AE
:10538000151515150E0A0A0A000000001B0A0A046A
:10539000040A0A1B000000001B0A0A0A0404040E87
:1053A000000000001F0908040402121F00001C0472
:1053B00004040404040404041C00000202040404A1
:1053C0000808081010000E0808080808080808084F
:1053D0000E00040A000000000000000000000000B1
:1053E0000000000000000000003F02040000000078
:1053F00000000000000000000000000C121C123C25
:10540000000000030202020E1212120E0000000041
:105410000000001C1202120C000000181010101CDA
:105420001212123C000000000000000C121E021CB0
:10543000000000182404041E0404041E00000000E0
:105440000000003C120C021C221C00030202020E8F
:105450001212123700000004040000060404040EB7
:10546000000000080800000C0808080808070003EE
:105470000202021A0A060A130000000704040404C8
:105480000404041F000000000000000F151515158E
:10549000000000000000000F121212370000000090
:1054A0000000000C1212120C000000000000000F9F
:1054B0001212120E020700000000001C1212121C31
:1054C000103800000000001B060202070000000068
:1054D0000000001E020C101E000000000004041E4C
:1054E0000404041C000000000000001B1212123C07
:1054F000000000000000001B0A0A04040000000075
:1055000000000015150E0A0A000000000000001B34
:105510000A040A1B000000000000003312120C08ED
:10552000040300000000001E0804041E0000180808
:105530000808080C080808081800080808080808DF
:1055400008080808080806040404040804040404FD
:105550000600160900000000000000000000020321
:105560000405060708090A0B0C0D0E0F10100000A9
:10557000905500080000002010000000F4470008CB
:10558000A055000810000020900600000448000804
:105590000000000000127A0001000000100000006E
:04000005080000ED02
:00000001FF
